:020000040800F2
:100000007850002439030008099500081171000890
:10001000019500081108000881AB000800000000ED
:10002000000000000000000000000000419E0008E9
:10003000710C00080000000091960008719E0008F5
:100040005703000857030008570300085703000828
:100050005703000857030008570300085703000818
:100060005703000857030008570300081908000841
:100070002908000857030008570300085703000821
:10008000390800084908000857030008570300080A
:1000900057030008570300085703000857030008D8
:1000A00057030008570300085703000857030008C8
:1000B00061A0000857030008570300085703000811
:1000C0005703000829710008197100085703000838
:1000D00057030008570300085703000871AB0008D6
:1000E00057030008570300080000000057030008EA
:1000F0005703000857030008570300085703000878
:100100005703000857030008570300085703000867
:100110005703000857030008570300085703000857
:100120005703000857030008570300085703000847
:100130005703000857030008570300085703000837
:1001400000000000000000000000000000000000AF
:100150005703000857030008570300085703000817
:100160005703000857030008570300085703000807
:100170005703000857030008570300080000000059
:1001800057030008570300085703000857030008E7
:1001900057030008570300085703000857030008D7
:1001A00057030008570300085703000857030008C7
:1001B00057030008570300085703000857030008B7
:1001C00057030008570300085703000857030008A7
:1001D0005703000857030008570300085703000897
:1001E0005703000857030008570300085703000887
:1001F0005703000857030008570300085703000877
:100200005703000857030008570300085703000866
:100210005703000857030008570300085703000856
:1002200057030008570300085703000800000000A8
:100230005703000857030008000000005703000898
:100240005703000857030008570300085703000826
:100250005703000857030008570300085703000816
:100260005703000857030008570300085703000806
:100270005703000857030008570300080000000058
:100280005703000857030008570300080000000048
:10029000000000005703000800F002F800F03CF8EE
:1002A0000AA090E8000C82448344AAF10107DA45D1
:1002B00001D100F031F8AFF2090EBAE80F0013F0E7
:1002C000010F18BFFB1A43F001031847FCFF0000A1
:1002D0001C000100103A24BF78C878C1FAD8520730
:1002E00024BF30C830C144BF04680C6070470000B0
:1002F0000023002400250026103A28BF78C1FBD82F
:10030000520728BF30C148BF0B6070471FB50EF0C1
:10031000EEFA1FBD10B510BD00F0E8F81146FFF76A
:10032000F5FF0CF025FA00F006F903B4FFF7F2FF31
:1003300003BC00F009F900000A4880470A488047DA
:100340000A480047FEE7FEE7FEE7FEE7FEE7FEE7B6
:10035000FEE7FEE7FEE7FEE705480649064A074BCB
:1003600070470000E1140008719F0008990200081E
:10037000784A002478500024784C0024784C0024DB
:1003800053EA020C00F069802DE9F04B4FF00006B3
:10039000002B1FBFB3FA83F503FA05F424FA05F620
:1003A0005E4012BF1643B2FA82F502FA05F4C5F1B7
:1003B00020051EBF22FA05FC44EA0C04203556EA4B
:1003C000044C4FEA144418BF641C4FF000084FF06F
:1003D0000009904271EB030C39D3002919BFB1FA1F
:1003E00081F701FA07F6B0FA80F700FA07F6C7F1CD
:1003F00020071EBF20FA07FC46EA0C062037B6FB92
:10040000F4FCA7EB0507103F07F01F0BCBF120060C
:100410002CFA06F60CFA0BFB44BFB3460026202F3D
:10042000A4BF5E464FF0000B5BEA060C08BF4FF01E
:10043000010B19EB0B0948EB0608ABFB027C06FB32
:1004400002CC0BFB03CCC01B71EB0C01C1E70B46CC
:10045000024641464846BDE8F08B13B5084318BF35
:100460004FF0FF300146AFF30080BDE81C407047FD
:100470004FF0000200B5134694469646203922BF3D
:10048000A0E80C50A0E80C50B1F12001BFF4F7AF88
:10049000090728BFA0E80C5048BF0CC05DF804EB6A
:1004A000890028BF40F8042B08BF704748BF20F8D8
:1004B000022B11F0804F18BF00F8012B70477047D6
:1004C0007047704710B500F009F8006810BD10B50E
:1004D000044600F003F8046010BD000000487047B7
:1004E000A000002400487047A00000247546FFF7D4
:1004F000F9FFAE4605006946534620F007008546E1
:1005000018B020B5FFF728FFBDE820404FF00006E7
:100510004FF000074FF000084FF0000BAC46ACE87E
:10052000C009ACE8C009ACE8C009ACE8C00921F0DA
:1005300007018D46704710B50446AFF30080204692
:10054000BDE81040FFF7F1BE01491820ABBEFEE741
:1005500026000200704700009FED668A40F22C10D2
:100560009FED659AF0EE480AB0EE490AB0EE491ADE
:1005700040F21C02C2F20040C2F2004200210025FB
:1005800009F066F8B0EE490AF0EE480AB0EE491AF2
:1005900040F27C1040F20402C2F20040C2F200427B
:1005A000002109F055F8B0EE490AF0EE480AB0EE25
:1005B000491A40F2CC1040F21002C2F20040C2F2DE
:1005C0000042002109F044F89FED4C8A40F26C2073
:1005D0009FED4B9AB0EE480A9FED4AAAF0EE490A09
:1005E000B0EE4A1A40F23402C2F20040C2F20042B7
:1005F000002109F02DF8B0EE480AF0EE490AB0EEFD
:100600004A1A40F21C2040F22802C2F20040C2F214
:100610000042002109F01CF8B0EE480AF0EE490A49
:10062000B0EE4A1A40F2BC2040F24002C2F2004052
:10063000C2F20042002109F00BF840F2A034C2F2ED
:10064000004425810CF08CF820600CF081F840F219
:1006500020356060C2F2004507E000BF60722046AE
:100660000AF092FA01200CF03BFD216891F8390064
:1006700010B991F83A205AB3022802D191F83A20E1
:1006800012B391F83A10012908BF00281AD00028A7
:1006900008BF02291AD0012808BF02291AD002284F
:1006A00008BF022918D0012808BF002916D080F001
:1006B000010081F0010108434FF0000008BF06204F
:1006C0000EE000BF01200BE0072009E0022007E058
:1006D000002005E0032003E0042001E0052000BF26
:1006E00007282072BAD1617A002902BF6168496E79
:1006F0002960B3E700401CC600401C460050434739
:10070000005043C700409C4690ED011A90ED003A1E
:1007100090ED052A90ED064A21EE021A90ED085A56
:1007200080ED050A80ED062AA3EE001A90ED023A4C
:10073000A3EE041A90ED033A90ED074A80ED084AC3
:10074000A3EE441A90ED043AA3EE451A80ED071A81
:10075000B0EE410A7047000010B52DED068BB6EEE5
:1007600000AA9FED272A20EE022A044620EE0A1A4C
:10077000B4EE601AF1EE10FAF5EE400A30FE821A7D
:10078000F1EE10FA31FE021A9FED1E2A21EE021A36
:1007900081EE008AB0EE480A0DF0F0FEB0EE409A0D
:1007A000B0EE480A0DF010FBB7EE001A9FED162AC6
:1007B00089EE022AB8EE004A002031EE403A32EECD
:1007C000015A20EE040A23EE0A6A31EE421A83EE41
:1007D000053A86EE052A84ED013A80EE050A84ED9D
:1007E000002A81EE051A84ED022A84ED030A84EDC5
:1007F000041AC4E90500C4E90700BDEC068B10BD6E
:10080000CDCCCC3DDB0FC940F304B53F0000000068
:10081000FEE700000000000040F23450C2F2004049
:1008200001F03ABA0000000040F2AC50C2F20040C1
:1008300001F032BA0000000040F22460C2F2004031
:1008400001F02ABA0000000040F29C60C2F20040B1
:1008500001F022BA0000000040F20F42D0F800C0C0
:10086000C4F20202944510DC6F22C4F202029445E5
:1008700020DC3F22C4F20202944536DC1022C4F28E
:100880000202944554D028224EE040F26F42C4F256
:10089000020294451ADC40F23F42C4F2020294453F
:1008A0002ADC40F21042C4F20202944540D040F2E9
:1008B000284239E09F22C4F20202944525DC7022CE
:1008C000C4F20202944533D088222DE040F29F42C8
:1008D000C4F2020294451FDC40F27042C4F20202EC
:1008E000944525D040F288421EE04022C4F2020224
:1008F00094451DD0582217E040F24042C4F2020253
:10090000944515D040F258420EE0A022C4F20202F3
:1009100094450DD0B82207E040F2B842C4F202027A
:10092000944505D040F2A042C4F20202944517D18A
:100930000CF0F8024AF6AB23103ACAF6AA23A2FB3F
:10094000033109A35F2AC1F302115B5C40F2FF315E
:100950002CEA0101C36588BF0431816508467047F0
:100960002CF0FF01F9E700BF000610160006101674
:1009700070B540F26F44D0F800C0C4F20204D0F861
:1009800058E0A44519DC9F25C4F20205AC4531DCD2
:100990005725C4F20205AC4556DC1025C4F2020509
:1009A000AC4500F092802825C4F20205AC4500F069
:1009B0008C804025C4F2020584E045F22F45C5F63F
:1009C0000205AC452BDC40F2B745C4F20205AC454C
:1009D00048DC40F27045C4F20205AC4575D040F2E7
:1009E0008845C4F20205AC456FD040F2A045C4F280
:1009F000020567E040F22745C4F20205AC4540DC41
:100A0000A025C4F20205AC455FD0B825C4F20205AA
:100A1000AC455AD040F21045C4F2020552E045F20E
:100A20006B45C5F60205AC453CDC45F23045C5F6E4
:100A30000205AC4549D045F24445C5F60205AC4532
:100A400043D045F258453BE05825C4F20205AC4579
:100A50003BD07025C4F20205AC4536D08825C4F2DF
:100A600002052FE040F2B845C4F20205AC452CD097
:100A700045F20845C5F60205AC4526D045F21C45B1
:100A80001EE040F22845C4F20205AC451DD040F2FC
:100A90004045C4F20205AC4517D040F25845C4F2B7
:100AA00002050FE045F26C45C5F60205AC450CD0D9
:100AB00045F29445C5F60205AC4506D045F28045A1
:100AC000C5F60205AC4540F0D180456EC66E002EDD
:100AD000866E6E601CBFD0E91C566E60A44515DCA6
:100AE0009F24C4F20204A4452BDC5724C4F2020460
:100AF000A4454EDC1024C4F20204A44576D0282478
:100B0000C4F20204A44571D040246BE045F22F44A6
:100B1000C5F60204A44527DC40F2B744C4F202043F
:100B2000A44542DC40F27044C4F20204A4455DD006
:100B300040F28844C4F20204A44557D040F2A044D5
:100B400050E040F22744C4F20204A4453CDCA02457
:100B5000C4F20204A44549D0B824C4F20204A44556
:100B600044D040F210443DE045F26B44C5F6020427
:100B7000A44553DC45F23044C5F60204A4455FD0D9
:100B800045F24444C5F60204A44559D045F2584400
:100B900052E05824C4F20204A44527D07024C4F2C1
:100BA0000204A44522D088241CE040F2B844C4F2D8
:100BB0000204A4451AD045F20844C5F60204A4452F
:100BC0003ED045F21C4437E040F22844C4F202040F
:100BD000A4450BD040F24044C4F20204A44505D021
:100BE00040F25844C4F20204A4453FD18468C06D69
:100BF00000F01F003F2505FA00F0CEF80800DCF8F1
:100C00000000402C20F48020CCF80000CCF8043008
:100C100023D0CCF80810CCF80C2070BD45F26C4401
:100C2000C5F60204A4450BD045F28044C5F6020483
:100C3000A44505D045F29444C5F60204A44515D157
:100C4000C46D806804F01F040125402805FA04F4EF
:100C5000CEF80440CCF8043004D1CCF80820CCF80D
:100C60000C1070BDCCF80810CCF80C2070BD000042
:100C7000704700000000000010B52C210446A0ECD5
:100C8000010AFFF7F5FB4FF07C50E060E06140F2B5
:100C90007000C2F2004040F27402C2F200424CF610
:100CA000CD410068206340F27800C3F6CC51C2F217
:100CB0000040E162116861630068A06310BD00003C
:100CC000B0B59BB090ED022A90ED014A30EE420A99
:100CD000B6EE002A90ED003A20EEA01AA4EE203ADB
:100CE0004FF07E5120EE022A1291A0EE204ABEEE75
:100CF000000A4FF0000E1A91A2EE013A6FF0030CB9
:100D000021EE000A6A468DED140AB1EE600ACDE9C3
:100D100015E112A980ED003A80ED014ACDED130AEC
:100D20008DED170ACDE918EE0EEB4E03644600EB8D
:100D3000830393ED030A93ED042A93ED053A002310
:100D4000CD180C33242B95ED014A95ED005A22EE77
:100D5000044AA0EE054A95ED025A02EB040504F19F
:100D60000404A3EE054A85ED014AE9D10EF1010E16
:100D70000CF10C0CBEF1030FD6D14FF0000C09ABF7
:100D80000CEB4C05002401EB850595ED000A95ED73
:100D9000012A95ED023A00BF151995ED034A95ED2C
:100DA000005A22EE044AA0EE054A95ED065A1D1996
:100DB00004340C2CA3EE054A85ED004AECD10CF16D
:100DC000010C0C33BCF1030FDAD19DED0D0A90ED4F
:100DD0000C2A90ED0D3AA2EE010A9DED111AA3EE38
:100DE000201A8DED0D0A8DED111A1199C162099924
:100DF000C1600A9901610B9941610C9981610D995A
:100E0000C1610E9901620F994162109981621BB014
:100E1000B0BD000000000000F0B58CB090ED031AEA
:100E200090ED0E2A31EE022A90ED003A90ED065A2E
:100E300090ED096A30EE430A90ED014A81EE021A04
:100E400090ED027A85EE025A00F10C0186EE022A3C
:100E50000DF1240CA1EE003AEE46A5EE004A002268
:100E6000A2EE007A8DED091A80ED003A80ED014A7C
:100E700080ED027A00208DED0A5A8DED0B2A00BF1D
:100E80000CEB82030EEB0004002593ED000A0B1817
:100E9000B1EE400A5E194F1996ED001A97ED002A3F
:100EA000A0EE021A661904350C2D86ED001AF1D158
:100EB00001320C30032AE3D10098086001984860A1
:100EC000029888600398C860049808610598486192
:100ED000069888610798C861089808620CB0F0BD50
:100EE00080B540F6D40040F28841C2F20040C2F220
:100EF0000041242205F018FD08B100F0E9FA40F2A3
:100F0000246040F20F41C2F20040C4F202010068C6
:100F100088426FF0080110DC6F22C4F20202904296
:100F200020DC3F22C4F20202904236DC1022C4F2DE
:100F30000202904256D028224EE040F26F42C4F2A4
:100F4000020290421ADC40F23F42C4F20202904296
:100F50002ADC40F21042C4F20202904242D040F237
:100F6000284239E09F22C4F20202904225DC70221E
:100F7000C4F20202904235D088222DE040F29F4216
:100F8000C4F2020290421FDC40F27042C4F202023C
:100F9000904227D040F288421EE04022C4F2020272
:100FA00090421FD0582217E040F24042C4F20202A1
:100FB000904217D040F258420EE0A022C4F2020242
:100FC00090420FD0B82207E040F2A042C4F20202E1
:100FD000904207D040F2B842C4F20202904218BFD9
:100FE0006FF0040102681140016080BD0000000044
:100FF0002DE9F04F85B0FFF773FF40F28844C2F24D
:1010000000442078C82840F0408241F200004FF4AC
:101010000071C5F60200012202F046F9A0780B2803
:1010200000F09080142800F09580162840F02D8262
:1010300040F23C4CE1782279C2F2004CA779257A43
:1010400062F30A2163790291E67AACF80010D108C4
:10105000BA00E77963F34A11039142EA9310ACF8BE
:1010600002107B08E27C67F38A20677A65F3CA1373
:1010700000902909A57A67F30A11ACF804006D0005
:10108000049145EAD710257B66F34A20677B4FEA37
:101090009609ACF80810FE00677D65F38A1994F88C
:1010A0000E8046EA5511257D160900EE103A65F3CB
:1010B0000A16ACF818607E00A77D46EAD515E67DD5
:1010C00067F34A25ACF81A50E57BBF0866F38A1728
:1010D000ACF81C7065F30A28277C4FEAD50E657CB6
:1010E00067F34A1E94F818B0AD00A47C45EA971A3D
:1010F000B8EE400A4FEACB07054647EA5616ACF869
:101100001E605E098B4664F38A2A1E2E4FEA540441
:10111000ACF8063062F3CA14ACF80A00CDF80490BB
:10112000ACF80C90ACF80E10ACF81080ACF812E0F3
:10113000ACF814A0ACF816401DD8AE2B21D29FED10
:10114000DB0A41E040F23C41E078C2F20041A1F804
:1011500048009AE140F23C41E078C2F2004181F857
:101160003E00D4E90102C1F83F00207BC1F84320D2
:1011700081F8470089E1B3F5E26F08D99FEDC80A0D
:1011800022E0B3F5787F0FD99FEDC90A1CE09FEDEF
:10119000C51A30EE010A9FEDC21A20EE010A9FED3A
:1011A000C21A80EE010A0FE09FEDC21A30EE010A6A
:1011B0009FEDBB1A20EE010A9FEDBF1A80EE010AD7
:1011C0009FEDBA1A30EE010A009A2E4601EE102A5F
:1011D0005309049F1E2BDDE90215B8EE411A8CED70
:1011E000080A04D8AE2A09D29FEDB10A27E040F2DE
:1011F00013739A4208D99FEDAA0A20E0B2F5787FCE
:1012000011D99FEDAE0A1AE09FEDA60A31EE000A51
:101210009FEDAA1A9FEDAA2A20EE010A80EE020A8B
:1012200030EE010A0BE09FEDA30A31EE000A9FEDBC
:10123000A31A20EE010A9FEDA01A80EE010A01EE2A
:10124000101A4A091E2A8CED090AB8EE411A05D86F
:10125000AE290BD2019B9FED950A2DE040F213724F
:1012600091420AD9019B9FED8E0A25E0B1F5787F66
:1012700011D9019B9FED8E0A1EE09FED8A0A019B0A
:1012800031EE000A9FED861A20EE010A9FED8C1ABE
:1012900080EE010A10E09FED870A019B31EE000A03
:1012A0009FED7F1A20EE010A9FED831A80EE010A5E
:1012B0009FED7E1A30EE010A01EE105A69091E29CF
:1012C0008CED0A0AB8EE411A04D8AE2D08D29FED73
:1012D000770A28E0B5F5E26F08D99FED710A22E0A0
:1012E000B5F5787F0FD99FED720A1CE09FED6D0A6E
:1012F00031EE000A9FED6A1A20EE010A9FED6A1A8C
:1013000080EE010A0FE09FED6B0A31EE000A9FEDBF
:10131000641A20EE010A9FED681A80EE010A9FED23
:10132000631A30EE010A01EE108A4FEA58111E29A5
:101330008CED0B0AB8EE411A05D8B8F1BF0F08D2F0
:101340009FED5B0A26E0B8F5E06F08D99FED540ADF
:1013500020E0B8F5787F11D99FED580A1AE09FED8B
:10136000510A31EE000A9FED551A9FED562A20EEE4
:10137000010A80EE020A30EE010A0BE09FED520AEC
:1013800031EE000A9FED4D1A20EE010A9FED4F1A33
:1013900080EE010A01EE10EA4FEA5E111E298CED83
:1013A0000C0AB8EE411A05D8BEF1BF0F08D29FED66
:1013B000400A26E0BEF5E06F08D99FED390A20E02B
:1013C000BEF5787F11D99FED3D0A1AE09FED350AF1
:1013D00031EE000A9FED391A9FED3A2A20EE010AFC
:1013E00080EE020A30EE010A0BE09FED370A31EE83
:1013F000000A9FED321A20EE010A9FED341A80EEAA
:10140000010A0021A6F5E0628CED0D0ABAF57A7F9B
:10141000B2FA82F288BF01215209B6F5787F8CF8C2
:1014200038104FEA4201A3F5E062B2FA82F208BF37
:1014300001215209B3F5787F4FEA42028CF8391046
:1014400008BF01220021B4F57A7F8CF83A20A7F575
:10145000E062B2FA82F288BF01215209B7F5787FC3
:101460008CF83B104FEA4201ABF5E062B2FA82F22F
:1014700008BF01215209BBF5787F4FEA42028CF880
:101480003C1008BF01228CF83D2040F28840242106
:10149000C2F20040FEF7ECFF05B0BDE8F08F00BFE0
:1014A0000000C842000078C400004C440000C8C2DC
:1014B0000000000000002EC300804C4400004842A1
:1014C00000C04C440000484400003FC30040484472
:1014D000EFF3108072B600BFFEE7000000000000CE
:1014E00044F60C00C5F60200016841F002010160FB
:1014F00050F8081C8904FBD570470000000000006C
:101500002DE9F041044601F0DFFE14B3054694F8DE
:101510003500022820D140F20F462768C4F20206A7
:1015200040F26F48B7426FF00E00C4F2020817DCB9
:101530006F21C4F202018F4223DC3F21C4F2020179
:101540008F4239DC1021C4F202018F4258D0282189
:1015500051E00120BDE8F08180206065012040E27B
:1015600047451ADC40F23F41C4F202018F422ADCB7
:1015700040F21041C4F202018F4241D040F22841B2
:1015800039E09F21C4F202018F4225DC7021C4F2B0
:1015900002018F4234D088212DE040F29F41C4F2F5
:1015A00002018F421FDC40F27041C4F202018F42FF
:1015B00026D040F288411EE04021C4F202018F4251
:1015C0001ED0582117E040F24041C4F202018F4280
:1015D00016D040F258410EE0A021C4F202018F4221
:1015E0000ED0B82107E040F2B841C4F202018F42A8
:1015F00006D040F2A041C4F202018F42394607D121
:101600003946386820F01E0041F8140B6FF0800056
:101610000A68474500EA0200086019DC9F20C4F20E
:101620000200874231DC5720C4F20200874256DCB8
:101630001020C4F20200874200F091802820C4F2FA
:101640000200874200F08B804020C4F2020084E058
:1016500045F22F40C5F6020087422BDC40F2B7402E
:10166000C4F20200874248DC40F27040C4F202003B
:10167000874274D040F28840C4F2020087426ED0A4
:1016800040F2A040C4F2020067E040F22740C4F2FA
:101690000200874240DCA020C4F2020087425ED0F4
:1016A000B820C4F20200874259D040F21040C4F280
:1016B000020052E045F26B40C5F6020087423CDC76
:1016C00045F23040C5F60200874248D045F244401A
:1016D000C5F60200874242D045F258403BE0582010
:1016E000C4F2020087423AD07020C4F2020087425E
:1016F00035D08820C4F202002FE040F2B840C4F296
:10170000020087422BD045F20840C5F6020087420E
:1017100025D045F21C401EE040F22840C4F20200F1
:1017200087421CD040F24040C4F20200874216D0EB
:1017300040F25840C4F202000FE045F26C40C5F69A
:10174000020087420BD045F29440C5F60200874262
:1017500005D045F28040C5F60200874204D1206ED4
:10176000016821F480710160386820F00100386060
:101770003868C0070BD001F0A7FD401B0628F7D33F
:1017800020206065032084F83500012029E12068CD
:10179000B04210DC6F21C4F2020188421CDC3F2100
:1017A000C4F20201884232DC1021C4F202018842F4
:1017B00050D028214AE040451ADC40F23F41C4F2B3
:1017C000020188422ADC40F21041C4F20201884240
:1017D00040D040F2284139E09F21C4F20201884202
:1017E00025DC7021C4F20201884233D088212DE02B
:1017F00040F29F41C4F2020188421FDC40F2704176
:10180000C4F20201884225D040F288411EE0402106
:10181000C4F2020188421DD0582117E040F2404135
:10182000C4F20201884215D040F258410EE0A021D6
:10183000C4F2020188420DD0B82107E040F2B8415D
:10184000C4F20201884205D040F2A041C4F2020174
:10185000884259D1D4E9161202F01F023F2303FA3D
:1018600002F28A60404559DC9F21C4F2020188429D
:1018700014DC5721C4F20201884226DC1021C4F294
:101880000201884200F09D802821C4F202018842B2
:1018900000F097804021C4F2020190E040F227411D
:1018A000C4F2020188421EDCA021C4F20201884277
:1018B00000F08780B821C4F20201884200F08180E4
:1018C00040F21041C4F2020179E05821C4F2020151
:1018D000884276D07021C4F20201884271D08821FA
:1018E000C4F202016BE040F22841C4F202018842D6
:1018F00067D040F24041C4F20201884261D040F218
:101900005841C4F202015AE0D4E9161202F01F0253
:10191000012303FA02F24A604045A5DD45F22F415A
:10192000C5F60201884216DC40F2B741C4F202015A
:10193000884225DC40F27041C4F20201884240D066
:1019400040F28841C4F2020188423AD040F2A041FC
:10195000C4F2020133E045F26B41C5F60201884250
:101960001DDC45F23041C5F60201884229D045F21E
:101970004441C5F60201884223D045F258411CE09B
:1019800040F2B841C4F2020188421AD045F208413F
:10199000C5F60201884214D045F21C410DE045F223
:1019A0006C41C5F6020188420BD045F29441C5F660
:1019B0000201884205D045F28041C5F60201884205
:1019C0000BD1616EA26EE06E4A6030B1016821F405
:1019D00080710160D4E91C014160012084F8350068
:1019E0000020002184F83410BDE8F08100000000E0
:1019F00080B5D8B190F83510022919D140F20F42C4
:101A00000168C4F20202914216DC6F23C4F20203A1
:101A1000994226DC3F23C4F2020399423CDC1023A6
:101A2000C4F2020399425AD0282354E0012080BD19
:101A300080214165012080BD40F26F43C4F2020362
:101A400099421ADC40F23F43C4F2020399422ADC75
:101A500040F21043C4F20203994240D040F22843BE
:101A600039E09F23C4F20203994225DC7023C4F2BB
:101A70000203994233D088232DE040F29F43C4F201
:101A8000020399421FDC40F27043C4F20203994200
:101A900025D040F288431EE04023C4F2020399425D
:101AA0001DD0582317E040F24043C4F2020399428C
:101AB00015D040F258430EE0A023C4F2020399422D
:101AC0000DD0B82307E040F2B843C4F202039942B4
:101AD00005D040F2A043C4F2020399426ED1914274
:101AE0004FF0040280F8352010DC6F20C4F20200B1
:101AF000814220DC3F20C4F20200814236DC10200B
:101B0000C4F20200814253D028204EE040F26F40E0
:101B1000C4F2020081421ADC40F23F40C4F20200EB
:101B200081422ADC40F21040C4F2020081423FD0E0
:101B300040F2284039E09F20C4F20200814225DCB7
:101B40007020C4F20200814232D088202DE040F2A1
:101B50009F40C4F2020081421FDC40F27040C4F298
:101B60000200814224D040F288401EE04020C4F2AE
:101B7000020081421CD0582017E040F24040C4F2DD
:101B80000200814214D040F258400EE0A020C4F27E
:101B9000020081420CD0B82007E040F2B840C4F205
:101BA0000200814204D040F2A040C4F2020081420F
:101BB000086820F001000860002080BD0A6822F05B
:101BC0000E020A6045F25742C5F6020291420A68C7
:101BD00022F001020A600EDC45F22F42C5F6020235
:101BE000914217DC45F20842C5F60202914226D026
:101BF00045F21C421FE045F27F42C5F602029142C7
:101C000011DC45F25842C5F60202914217D045F266
:101C10006C4210E045F23042C5F6020291420ED00D
:101C200045F2444207E045F29442C5F60202914271
:101C300005D045F28042C5F6020291421AD1D0E9A0
:101C4000181CD0E916E30A6822F480720A6003F0D7
:101C50001F01012202FA01F1CEF80410816ECCF8C6
:101C60000410C16E31B10A6822F480720A60D0E9B2
:101C70001C124A60012180F83510026D002180F8A5
:101C800034100AB190470021084680BD00000000D2
:101C900090F83500704700002DE9F04381B0002135
:101CA000009140F25C010446C2F2004148F2B512D4
:101CB000C1F64E32A56D096840F26F490068C4F262
:101CC0000209A1FB021848452E682A6815DC9F21ED
:101CD000C4F2020188422BDC5721C4F2020188427F
:101CE0004FDC1021C4F20201884278D02821C4F2CE
:101CF0000201884273D040216CE045F22F41C5F6C5
:101D00000201884227DC40F2B741C4F20201884256
:101D100043DC40F27041C4F2020188425FD040F2DD
:101D20008841C4F20201884259D040F2A04151E0FA
:101D300040F22741C4F2020188423DDCA021C4F2F6
:101D4000020188424BD0B821C4F20201884246D039
:101D500040F210413EE045F26B41C5F60201884277
:101D600075DC45F23041C5F60201884200F0828000
:101D700045F24441C5F6020188427BD045F2584104
:101D800073E05821C4F20201884228D07021C4F2C5
:101D90000201884223D088211CE040F2B841C4F2FD
:101DA000020188421BD045F20841C5F60201884273
:101DB00060D045F21C4158E040F22841C4F20201D3
:101DC00088420CD040F24041C4F20201884206D061
:101DD00040F25841C4F20201884240F05884E16D5B
:101DE000082201F01F018A40324200F0168140F2C1
:101DF0000F43C4F2020398424FF0040313DC6F2731
:101E0000C4F20207B84200F391803F27C4F20207F0
:101E1000B84200F3D2801027C4F20207B84200F0A3
:101E2000F0802827E8E0484500F38C8040F23F47E7
:101E3000C4F20207B84200F3C78040F21047C4F270
:101E40000207B84200F0DD8040F22847D4E045F2B6
:101E50006C41C5F6020188420CD045F28041C5F6BE
:101E60000201884206D045F29441C5F6020188423B
:101E700040F00D840368E16D01F01F01042707FAAB
:101E800001F6164218BF13F004072CD1022707FAF7
:101E900001F6164218BF13F002076AD1CA401207B2
:101EA00040F1F58313F0080200F0F18340F20F4295
:101EB000C4F2020290426FF01C0200F3FF826F2313
:101EC000C4F20203984200F331833F23C4F20203B9
:101ED000984200F366831023C4F20203984200F094
:101EE000988328238FE319046E603AD4990600F191
:101EF000CA8340F20F41C4F2020188426FF0080128
:101F000000F301836F22C4F20202904200F32D839A
:101F10003F22C4F20202904200F38D831022C4F2E9
:101F20000202904200F0AC832822A3E39F27C4F270
:101F30000207B84251DC7027C4F20207B84260D0F1
:101F4000882759E040F29F47C4F20207B8424BDCB1
:101F500040F27047C4F20207B84252D040F28847BC
:101F60004AE0D80300F1A682A16C002940F09D82CE
:101F70008DE319046E6000F1B482990600F1D383F9
:101F800040F20F41C4F2020188426FF0140100F3E5
:101F90000F836F22C4F20202904200F37B833F2240
:101FA000C4F20202904200F390831022C4F20202B3
:101FB000904200F0AF832822A6E34027C4F2020734
:101FC000B8421ED0582717E040F24047C4F202073B
:101FD000B84216D040F258470EE0A027C4F20207DC
:101FE000B8420ED0B82707E040F2A047C4F202077B
:101FF000B84206D040F2B847C4F20207B84218BF50
:10200000082307681F4208D0036823F00403036015
:10201000AA60626D42F00102626501228A4032428A
:102020006FD040F20F43C4F20203984210DC6F23DA
:10203000C4F2020398421CDC3F23C4F2020398421C
:1020400032DC1023C4F20203984251D028234AE024
:1020500048451ADC40F23F43C4F2020398422ADCAE
:1020600040F21043C4F20203984241D040F22843A8
:1020700039E09F23C4F20203984225DC7023C4F2A6
:102080000203984234D088232DE040F29F43C4F2EB
:10209000020398421FDC40F27043C4F202039842EC
:1020A00026D040F288431EE04023C4F20203984247
:1020B0001ED0582317E040F24043C4F20203984276
:1020C00016D040F258430EE0A023C4F20203984217
:1020D0000ED0B82307E040F2B843C4F2020398429E
:1020E00006D040F2A043C4F20203984240F0FF81C0
:1020F000436903F0800323B1AA60626D42F00202DB
:10210000626504228A4032426FD040F20F43C4F22B
:102110000203984210DC6F23C4F2020398421CDCD5
:102120003F23C4F20203984232DC1023C4F20203BC
:10213000984251D028234AE048451ADC40F23F43F8
:10214000C4F2020398422ADC40F21043C4F20203B4
:10215000984241D040F2284339E09F23C4F2020361
:10216000984225DC7023C4F20203984234D08823BD
:102170002DE040F29F43C4F2020398421FDC40F27C
:102180007043C4F20203984226D040F288431EE016
:102190004023C4F2020398421ED0582317E040F2B5
:1021A0004043C4F20203984216D040F258430EE076
:1021B000A023C4F2020398420ED0B82307E040F2F5
:1021C000B843C4F20203984206D040F2A043C4F2DE
:1021D0000203984240F09181036803F0020323B1A7
:1021E000AA60626D42F004026265102202FA01F1F7
:1021F00031427DD040F20F42C4F2020290424FF0D1
:10220000080210DC6F23C4F2020398421CDC3F2357
:10221000C4F20203984232DC1023C4F20203984253
:1022200051D028234AE048451ADC40F23F43C4F22B
:10223000020398422ADC40F21043C4F2020398429F
:1022400041D040F2284339E09F23C4F20203984270
:1022500025DC7023C4F20203984234D088232DE099
:1022600040F29F43C4F2020398421FDC40F27043E5
:10227000C4F20203984226D040F288431EE0402375
:10228000C4F2020398421ED0582317E040F24043A4
:10229000C4F20203984216D040F258430EE0A02345
:1022A000C4F2020398420ED0B82307E040F2A043E4
:1022B000C4F20203984206D040F2B843C4F20203CB
:1022C000984218BF04220368134211D0A960016824
:1022D0004903016806D4C90506D4016821F0080144
:1022E000016001E0080352D4216C09B120468847FF
:1022F000E06D00F01F01202000FA01F2324200F0F0
:10230000AB8040F20F432068C4F2020398424FF0C2
:10231000100310DC6F27C4F20207B8421CDC3F2711
:10232000C4F20207B84236DC1027C4F20207B842F2
:1023300055D028274EE048451ADC40F23F47C4F20A
:102340000207B8422EDC40F21047C4F20207B8423E
:1023500045D040F228473DE09F27C4F20207B8422B
:1023600029DC7027C4F20207B84238D0882731E050
:1023700040F29F47C4F20207B84223DC40F27047A4
:10238000C4F20207B8422AD040F2884722E0A16C8A
:102390000029ABD1ACE74027C4F20207B8421ED0F7
:1023A000582717E040F24047C4F20207B84216D05F
:1023B00040F258470EE0A027C4F20207B8420ED000
:1023C000B82707E040F2A047C4F20207B84206D09F
:1023D00040F2B847C4F20207B84218BF02230768A8
:1023E0001F4239D0AA6094F83520042A02681BD114
:1023F00022F016020260426922F080024261226CE1
:102400000AB9A26C1AB1026822F0080202603F20E9
:102410008840A860012084F83500216D0020002943
:1024200084F8340041D132E1510301680CD4C9056C
:102430000ED4016821F010010160012084F83500FC
:10244000002084F8340003E0080301D4616C00E04C
:10245000E16B09B120468847606D002800F01781C4
:10246000606DC0071DD0042084F8350020684FEA55
:102470009821026822F00102026000BF009A013236
:1024800000928A4202D80268D207F7D10068C007DA
:102490004FF0030008BF012084F83500002084F8C5
:1024A0003400E16C002900F0F280204601B0BDE864
:1024B000F0430847216C0029F7D1E8E0484541DCAA
:1024C00040F23F43C4F20203984200F3848040F29A
:1024D0001043C4F20203984200F09B8040F228436C
:1024E00091E0D8033DD4616C0029DED1CFE00368D0
:1024F0000023002B7FF400AE03E603680023002BCB
:102500007FF46EAE71E648453CDC40F23F42C4F2D7
:102510000202904200F3968040F21042C4F202029E
:10252000904200F0AD8040F22842A3E09F23C4F225
:102530000203984258DC7023C4F20203984268D028
:10254000882360E040F29F43C4F20203984252DCC9
:1025500040F27043C4F2020398425AD040F28843DA
:1025600051E0E16B0029A0D191E09F22C4F2020268
:10257000904270DC7022C4F20202904200F080802F
:10258000882277E040F29F42C4F20202904269DC66
:1025900040F27042C4F20202904271D040F288428E
:1025A00068E04023C4F20203984232D058232AE064
:1025B00048457BDC40F23F42C4F20202904200F305
:1025C0008B8040F21042C4F20202904200F0A280DE
:1025D00040F2284298E040F24043C4F2020398429D
:1025E00017D040F258430EE0A023C4F202039842F1
:1025F0000FD0B82307E040F2A043C4F20203984290
:1026000007D040F2B843C4F20203984218BF6FF0FB
:102610000E0203681A400260012000FA01F16960AD
:10262000606584F835000020E16C84F834000029EE
:102630007FF43BAF2BE04022C4F2020290421FD055
:10264000582217E040F24042C4F20202904217D0F2
:1026500040F258420EE0A022C4F2020290420FD093
:10266000B82207E040F2A042C4F20202904207D032
:1026700040F2B842C4F20202904218BF6FF0040167
:10268000026811400160216C00297FF40EAF01B097
:10269000BDE8F0839F22C4F20202904225DC702242
:1026A000C4F20202904235D088222DE040F29F42CF
:1026B000C4F2020290421FDC40F27042C4F20202F5
:1026C000904227D040F288421EE04022C4F202022B
:1026D00090421FD0582217E040F24042C4F202025A
:1026E000904217D040F258420EE0A022C4F20202FB
:1026F00090420FD0B82207E040F2A042C4F202029A
:10270000904207D040F2B842C4F20202904218BF91
:102710006FF00A01026811400160012084F8350061
:10272000002084F83400E16B00297FF4BEAEAEE7F0
:102730002DE9F041044600F0C7FDECB140F26F48CE
:1027400005462068C4F20208404518DC9F21C4F207
:10275000020188422EDC5721C4F20201884254DC77
:102760001021C4F2020188427DD02821C4F2020166
:10277000884278D0402171E00120BDE8F08145F227
:102780002F41C5F60201884227DC40F2B741C4F26E
:102790000201884245DC40F27041C4F202018842E5
:1027A00061D040F28841C4F2020188425BD040F21D
:1027B000A04153E040F22741C4F2020188423FDCCD
:1027C000A021C4F2020188424DD0B821C4F2020116
:1027D000884248D040F2104140E045F26B41C5F6D6
:1027E0000201884200F3928045F23041C5F60201B1
:1027F000884200F09D8045F24441C5F602018842BE
:1028000000F0968045F258418EE05821C4F2020152
:10281000884228D07021C4F20201884223D0882146
:102820001CE040F2B841C4F2020188421BD045F2DC
:102830000841C5F6020188427AD045F21C4173E096
:1028400040F22841C4F2020188420CD040F24041DB
:10285000C4F20201884206D040F25841C4F202019B
:10286000884240F0C580022184F83510002184F8A8
:102870003410016821F00101016000BF2068016887
:10288000C9070CD000F020FD401B0628F6D32020FD
:102890006065032084F835000120BDE8F08148F22E
:1028A0003F0204F108060168CFF610621140656925
:1028B0004CCE1143A2691943E3693143266A0D43A3
:1028C000616A2B43042943EA060343EA020303D166
:1028D000D4E90B652E43334341F20006C5F60046AA
:1028E0003668B6F1005F6CD36568A5F12906202E25
:1028F00005D23F27CCF2C037F740FF075CD1A5F1E6
:102900004F060025042E38BF012556E045F26C41E4
:10291000C5F6020188420BD045F28041C5F602019E
:10292000884205D045F29441C5F6020188425FD144
:1029300004F1080E022184F83510002184F83410C7
:102940000168A3699EE80450A2F18005E769B5FA21
:1029500085F566696D09402A4FEA853543EA070225
:102960006FF3101142EA060208BF102541EADC01AC
:1029700042EA0E022943236A41EAD2014AF6F832BA
:10298000CAF2FD724CF6CD470244CCF6CC4741EA80
:102990001311A2FB072301606FF0030000EA93000C
:1029A000E0652046FDF758FFE16D012201F01F01AF
:1029B00002FA01F1416045E00125002D18BF43F402
:1029C000801303600429436923F0070341EA0301EC
:1029D0002DD1D4E90A5341EA050143B3B2F5005FB2
:1029E00008D09AB9022D16D0012D09D09DB115E05D
:1029F00040204DE7032D11D8DFE805F00A0D0A024B
:102A0000A3F1C072B2FA82F2520908E0032D01D29A
:102A1000012204E002D1C3F3006200E0002232B1DF
:102A200040206065012084F83500BDE8F0814161F7
:102A30002046FDF711FFE16D3F2201F01F0102FA70
:102A400001F181602068404519DC9F21C4F2020138
:102A5000884231DC5721C4F20201884256DC102141
:102A6000C4F20201884200F092802821C4F20201DF
:102A7000884200F08C804021C4F2020184E045F2DB
:102A80002F41C5F6020188422BDC40F2B741C4F267
:102A90000201884248DC40F27041C4F202018842DF
:102AA00075D040F28841C4F2020188426FD040F2F2
:102AB000A041C4F2020167E040F22741C4F20201E2
:102AC000884240DCA021C4F2020188425FD0B821D4
:102AD000C4F2020188425AD040F21041C4F202010D
:102AE00052E045F26B41C5F6020188423CDC45F2FA
:102AF0003041C5F60201884249D045F24441C5F64D
:102B00000201884243D045F258413BE05821C4F2CB
:102B1000020188423BD07021C4F20201884236D0C3
:102B20008821C4F202012FE040F2B841C4F2020150
:102B300088422CD045F20841C5F60201884226D0D1
:102B400045F21C411EE040F22841C4F202018842D5
:102B50001DD040F24041C4F20201884217D040F239
:102B60005841C4F202010FE045F26C41C5F6020182
:102B700088420CD045F29441C5F60201884206D045
:102B800045F28041C5F60201884240F0D08045F20E
:102B9000574C45F6FC01C5F6020CC5F6020160452E
:102BA0000EDC45F22F43C5F60203984217DC45F2CE
:102BB0000843C5F60203984226D045F21C431FE0A5
:102BC00045F27F43C5F60203984211DC45F25843B3
:102BD000C5F60203984217D045F26C4310E045F267
:102BE0003043C5F6020398420ED045F2444307E055
:102BF00045F29443C5F60203984205D045F280435E
:102C0000C5F60203984250D100F0FC034CF6CD47C4
:102C1000083BCCF6CC47A3FB0737A1F1FC05A1F19B
:102C20007C063B0905EB83022266A26803F01F03C2
:102C30000127802A666607FA03F2A26601D1002204
:102C400062606268A56ED4E91876D3B2013A072AA9
:102C50003B60756015D85E1E072E62D8604501F195
:102C6000440213DC45F22F47C5F60207B8423CDCAC
:102C700045F20847C5F60207B8424BD045F21C475B
:102C800044E000206067C4E91B0050E045F27F4744
:102C9000C5F60207B84231DC45F25847C5F60207CF
:102CA000B84237D045F26C4730E000F0F8034AF6FE
:102CB000AB27103BCAF6AA27A3FB073740F20F4306
:102CC000C4F2020308253E09984203F1AA023346E2
:102CD00088BF05EB171340F600059042C4F20205C9
:102CE00028BF334605F180069CE745F23047C5F61C
:102CF0000207B8420ED045F2444707E045F280474C
:102D0000C5F60207B84205D045F29447C5F602075A
:102D1000B84213D101EB8300E06601202267B04086
:102D2000606704F16C02002307CA03604A60002058
:102D30006065012184F83510BDE8F08140F600009F
:102D4000C4F2020000F1FC0100F5A072E2E700000D
:102D5000B0B5E0B3054690F83400012801D1022057
:102D6000B0BD012085F8340095F83500012828D140
:102D7000022085F83500002068652868046824F082
:102D8000010404602846FDF7F3FD40F20F42286875
:102D9000C4F2020240F26F419042C4F2020118DC18
:102DA0006F23C4F20203984224DC3F23C4F20203DF
:102DB00098423ADC1023C4F20203984259D02823E7
:102DC00052E04FF400606865002085F8340001206F
:102DD000B0BD88421ADC40F23F43C4F2020398427D
:102DE0002ADC40F21043C4F20203984241D040F280
:102DF000284339E09F23C4F20203984225DC702364
:102E0000C4F20203984234D088232DE040F29F435D
:102E1000C4F2020398421FDC40F27043C4F2020382
:102E2000984226D040F288431EE04023C4F20203B9
:102E300098421ED0582317E040F24043C4F20203E8
:102E4000984216D040F258430EE0A023C4F2020389
:102E500098420ED0B82307E040F2B843C4F2020310
:102E6000984206D040F2A043C4F20203984240F0D8
:102E7000238103680B2464F3440303602B6C1BB1B0
:102E80000823046823430360884219DC9F23C4F2AB
:102E90000203984231DC5723C4F20203984256DC05
:102EA0001023C4F20203984200F091802823C4F258
:102EB0000203984200F08B804023C4F2020384E0B6
:102EC00045F22F43C5F6020398422BDC40F2B7438C
:102ED000C4F20203984248DC40F27043C4F2020399
:102EE000984274D040F28843C4F2020398426ED0F4
:102EF00040F2A043C4F2020367E040F22743C4F269
:102F00000203984240DCA023C4F2020398425ED040
:102F1000B823C4F20203984259D040F21043C4F2DD
:102F2000020352E045F26B43C5F6020398423CDCD3
:102F300045F23043C5F60203984248D045F2444377
:102F4000C5F60203984242D045F258433BE058236D
:102F5000C4F2020398423AD07023C4F202039842AA
:102F600035D08823C4F202032FE040F2B843C4F204
:102F7000020398422BD045F20843C5F6020398425B
:102F800025D045F21C431EE040F22843C4F2020360
:102F900098421CD040F24043C4F20203984216D03B
:102FA00040F25843C4F202030FE045F26C43C5F609
:102FB000020398420BD045F29443C5F602039842AF
:102FC00005D045F28043C5F6020398426ED12B6EC0
:102FD0001C68E40303D51C6844F480741C60EB6E29
:102FE0001BB11D6845F480751D60904210DC6F2197
:102FF000C4F2020188421CDC3F21C4F20201884273
:1030000032DC1021C4F2020188424FD028214AE06C
:1030100088421ADC40F23F41C4F2020188422ADCB5
:1030200040F21041C4F2020188423FD040F22841F0
:1030300039E09F21C4F20201884225DC7021C4F2EC
:103040000201884232D088212DE040F29F41C4F233
:10305000020188421FDC40F27041C4F20201884242
:1030600024D040F288411EE04021C4F2020188428F
:103070001CD0582117E040F24041C4F202018842BE
:1030800014D040F258410EE0A021C4F2020188425F
:103090000CD0B82107E040F2B841C4F202018842E6
:1030A00004D040F2A041C4F202018842016841F01C
:1030B000010101600020B0BD0368052464F34303EF
:1030C00003602B6C002B3FF4DFAE0423D9E6000035
:1030D000B0B5044600F0F8F840F284010546C2F2AB
:1030E0000041621C097818BF0C4400BF00F0ECF8E6
:1030F000401BA042FAD3B0BD40F2B041C2F2004141
:1031000008607047000000002DE9F04F82B00C68A5
:10311000002C00F0C58000F1264242F2004302F18B
:10312000FF72C5F602030A2798424FEAB22540F221
:10313000040E08BF0927092DC5F6000E38BF4FEA57
:10314000B22700224FF0030C00970026002709E069
:1031500001370C6834FA07F306F1020602F10402A3
:1031600000F09E80012303FA07FA14EA0A09EFD05F
:10317000D1F804B00BF00304A4F10108B8F1010F79
:1031800011D8D0F808800CFA06F3CD6828EA0303BA
:10319000B5402B438360CBF30015436823EA0A0351
:1031A000BD402B434360032C1DD0C3680CFA06F5C9
:1031B000AB438D68B540022C43EA0503C36012D1CE
:1031C0006FF0030302F01C0503EA57030F240344C6
:1031D00004FA05FAD3F820800C6928EA0A08AC4002
:1031E00044EA08041C6203680CFA06F44D68A34321
:1031F00005F0030415F4403F04FA06F443EA04031F
:103200000360A5D044F2F44440F2084AC5F6020433
:10321000C5F6000A0F25236843F0020323602368E4
:1032200003F00203019327F00303019C02F00C0456
:1032300053F80A80A54028EA0508009D05FA04F421
:1032400044EA080443F80A404FF0B04ADAF8008034
:103250004C6848EA0905E30258BF28EA0905A302B9
:10326000CAF80050DEF8008048EA090558BF28EA8D
:103270000905A303CEF80050DEF8808048EA09056E
:1032800058BF28EA0905E403CEF88050DEF87C3008
:1032900043EA090558BF23EA0905CEF87C5057E7F1
:1032A00002B0BDE8F08F0000002A08BF0904816168
:1032B000704700000000000041F20000C5F6004029
:1032C0000068000C7047000044F26870C2F20040D1
:1032D000006870470000000090F84120202A03D1C8
:1032E00090F84020012A01D102207047242280F862
:1032F00041200268136823F001031360136823F46C
:1033000080531360136819431160116841F0010183
:103310001160202180F84110002180F840100846FB
:10332000704700000000000090F84120202A03D1DF
:1033300090F84020012A01D102207047242280F811
:1033400041200268136823F001031360136823F41B
:10335000706343EA01211160116841F001011160BD
:10336000202180F84110002180F840100846704765
:1033700070470000000000007047000000000000DF
:10338000D0F800C0DCF81830DCF80020D90502F0D5
:10339000800208D53AB1416C41F0010141644FF41B
:1033A0008071CCF81C10590508D53AB1416C41F038
:1033B000080141644FF48061CCF81C10990508D5D0
:1033C0003AB1416C41F0020141644FF40071CCF814
:1033D0001C10416C11F00B0F08BF704703F054BF75
:1033E0000268436B002B9169126808BF7047184749
:1033F000704700000000000000284ED010B50446C1
:1034000090F8410028B9002084F84000204600F0E0
:10341000E3FB242084F8410094E80310E36821F0E2
:1034200070610268012B22F00102026001614FF419
:103430000441826808BF4FF4004122F400428260D8
:1034400041EA0C0181604168022B21F4006104F122
:10345000100308BF01F500614160416841F000714F
:1034600041F400414160C16821F40041C1600ECBCC
:10347000114341EA0321C160D4E9071211430160FD
:10348000016841F00101016000206064202184F89E
:103490004110206384F8420010BD012070470000F5
:1034A00070470000000000007047000000000000AE
:1034B000704700000000000070470000000000009E
:1034C00070470000000000002DE9F04F81B0044675
:1034D00090F8410020280AD10A9F67B1DDF82CB08E
:1034E000BBF1000F07D094F84000012807D102205B
:1034F00001B0BDE8F08F4FF400706064C7E01D4676
:1035000091468846012084F84000FFF7DDFE2168DF
:1035100006468969090429D4222084F84100402004
:1035200084F8420000206064676249F6000AE9B24C
:10353000A4F82AB0606320686FF39F28CFF6004A92
:10354000426848EA014102EA0A02DDF830B011445B
:1035500001F500514160806980073DD40BF10107FE
:1035600028E000BF206880690004D5D519212046D5
:10357000324604F051FA002840F08980FFF7A4FE9B
:10358000801B1A28EED3206880690004EAD5606C9D
:1035900040F020006064202084F84100002084F87E
:1035A000420072E02068806980075FD520688069EA
:1035B000800711D420465946324604F02DFA0028DF
:1035C00062D1002FF2D0FFF77FFEBBF1000FE9D0F0
:1035D000801B5845EAD9E5E7012D206822D04FEA43
:1035E00019218162806980071BD40BF1010507E076
:1035F00020688069800739D520688069800710D4E9
:1036000020465946324604F007FAE8BB002DF3D0B5
:10361000FFF75AFEBBF1000FEAD0801B5845EBD9EB
:10362000E6E720685FFA89F18162206880694006D8
:1036300031D40BF1010707E020688069400615D5F9
:103640002068806940061ED420465946324604F060
:10365000E3F9C8B90546002FF2D0FFF735FEBBF1FC
:10366000000FE9D0801B5845EAD9E5E7606C40F0CF
:1036700020006064202084F84100002084F842008B
:1036800084F8400000E035B1002084F840000120BB
:1036900001B0BDE8F08F608D40F20009C0F2FF1963
:1036A000B0F5807F09D32068FF21218509F51052EC
:1036B00050F8041F01EA0A010BE0618D20682185A2
:1036C000C9B250F8042F02EA0A0242EA014109F5A0
:1036D000923211430BF10105FF270AF5806A41EA96
:1036E0000801016004E02068806940077FF54FAF62
:1036F00020688069400711D420465946324604F0BC
:103700008BF90028C3D1002DF2D0FFF7DDFDBBF10E
:10371000000FE8D0801B5845EAD9E4E72068616AC9
:10372000406A0870218D606A01306062481E208501
:10373000618D01396185618DC9B3000405D036E022
:103740002068806900067FF522AF20688069000646
:1037500011D420465946324604F05EF9002896D12D
:10376000002DF2D0FFF7B0FDBBF1000FE8D0801BB9
:103770005845EAD9E4E7608DB0F5807F07D320682B
:1037800027854A4650F8041F01EA0A010BE0618DC3
:1037900020682185C9B250F8042F02EA0A0242EAE1
:1037A00001414FF00072114341EA08010160608D50
:1037B00000289DD120465946324604F081FE00285B
:1037C0007FF465AF206820214EF60003C161CFF67B
:1037D000006342681A40426084F84110002084F877
:1037E000420084F8400001B0BDE8F08F0000000006
:1037F000B0B590F84140202C10D1DDF810E0BEF1BA
:10380000000F0DD0059C5CB1D0F800C0DCF818505A
:103810002D0403D490F84050012D06D10220B0BDF4
:103820004FF4007141640120B0BD012580F8405083
:10383000222580F84150402580F8425000254564FB
:103840000025C0F824E04485CFF6FF75C56247F631
:10385000F965012BC0F600054563C16405D1D2B2FC
:10386000CCF828204FF0FF3203E0150ACCF828509E
:10387000D2B2026549F60005DAB2DCF804306FF323
:103880009F21CFF6004541EA024103EA05021144B7
:1038900001F50051CCF80410002180F84010DCF84C
:1038A000000040F0F200CCF800000846B0BD000077
:1038B0002DE9F04F81B0044690F8410020280AD14C
:1038C0000A9F67B1DDF82CA0BAF1000F07D094F879
:1038D0004000012807D1022001B0BDE8F08F4FF46D
:1038E00000706064C9E01D4691468846012084F856
:1038F0004000FFF7E9FC21680646896909042BD4DA
:10390000E9B221206FF39F2884F84100402084F819
:10391000420000206064676248EA0141A4F82AA0DE
:1039200049F6004A60632068CFF6004ADDF830B0FF
:103930004268AAF580631A40114441F0807141F455
:1039400000514160806980073CD40BF1010727E0FA
:10395000206880690004D3D519212046324604F03E
:103960005BF8002840F08980FFF7AEFC801B1A2826
:10397000EED3206880690004EAD5606C40F0200036
:103980006064202084F84100002084F8420072E046
:103990002068806980075FD520688069800711D41E
:1039A00020465946324604F037F8002862D1002FED
:1039B000F2D0FFF789FCBBF1000FE9D0801B58451E
:1039C000EAD9E5E7012D206822D04FEA192181626A
:1039D000806980071BD40BF1010507E0206880692E
:1039E000800739D520688069800710D42046594661
:1039F000324604F011F8E8BB002DF3D0FFF764FC69
:103A0000BBF1000FEAD0801B5845EBD9E6E72068F0
:103A10005FFA89F1816220688069000631D40BF178
:103A2000010707E020688069000615D520688069D5
:103A300000061ED420465946324603F0EDFFC8B9B1
:103A40000546002FF2D0FFF73FFCBBF1000FE9D095
:103A5000801B5845EAD9E5E7606C40F020006064BF
:103A6000202084F84100002084F8420084F84000BF
:103A700000E035B1002084F84000012001B0BDE82D
:103A8000F08F608DB0F5807F0AD32068FF212185FB
:103A9000002250F8041FC0F2FF1201EA0A010BE0F5
:103AA000618D20682185C9B250F8042F02EA0A020C
:103AB00042EA01414FF0007240F2000911430BF15C
:103AC0000105C0F2FF19FF2741EA0801016004E087
:103AD0002068806980077FF550AF20688069800783
:103AE00011D420465946324603F096FF0028C4D12F
:103AF000002DF2D0FFF7E8FBBBF1000FE8D0801BF0
:103B00005845EAD9E4E7616A206811F8012B82621E
:103B10006162618D01396185218D01392185628D57
:103B2000CAB3090406D036E02068806900067FF534
:103B300024AF20688069000611D4204659463246D9
:103B400003F06AFF002898D1002DF2D0FFF7BCFBEC
:103B5000BBF1000FE8D0801B5845EAD9E4E7608D3F
:103B6000B0F5807F07D3206827854A4650F8041FA8
:103B700001EA0A010BE0618D20682185C9B250F885
:103B8000042F02EA0A0242EA01414FF00072114397
:103B900041EA08010160608D00289ED12046594607
:103BA000324604F08DFC00287FF467AF20682021A6
:103BB0004EF60003C161CFF6006342681A404260CE
:103BC00084F84110002084F8420084F8400001B0DD
:103BD000BDE8F08F000000002DE9F043B7B00446C7
:103BE00002A8C0210025CDE93555CDE933553295E0
:103BF000FCF73EFC45F600012068C4F20001884253
:103C000002D037B0BDE8F0830820029002A80395E7
:103C1000239500F031FB08B1FDF75AFC44F2E04572
:103C200040F21008C5F6020532A9C4F2020828685D
:103C300040F002002860286800F00200019001981E
:103C40004FF44060329012203390012034900320D2
:103C500035900420369040F20040C5F60200FFF790
:103C600053FAA868002740F48000A860A86840F2D2
:103C70003455C2F2004500F4800001904FF4806991
:103C80000198232068602846C5F800804FF48036EC
:103C9000C5E90277C5E90497C5E90677C5E908676C
:103CA000FEF746FD08B1FDF713FCE56308F11800C7
:103CB000AC6340F2AC55C2F2004505F10801286042
:103CC00024206860402081E8810228466F62C5E9AF
:103CD0000577C5E90776FEF72BFD08B1FDF7F8FB80
:103CE000212005210022A563AC6300F025F92120E5
:103CF00000F012F922200521002200F01DF92220F7
:103D000000F00AF937B0BDE8F083000000000000C1
:103D10007047000000000000704700000000000035
:103D200040F2840044F26871C2F20040C2F20041E5
:103D300000780A6810440860704700000000000026
:103D400080B5032000F028F901F07EF944F2184113
:103D50004EF67423C5F60201C0F600030A6809682E
:103D600001F00F01C2F30322595C9A5C01F01F01BC
:103D700002F01F02D04040F26002C2F2004220FA7C
:103D800001F1116040F25C01C2F2004108600F20B5
:103D900000F00AF800281CBF012080BD00F0A4F844
:103DA000002080BD00000000B0B58AB00F2840D8C8
:103DB00004461C2000222146002500F0BDF81C20EE
:103DC00000F0AAF840F28800C2F20040046044F219
:103DD000E840C5F60200016841F001010160006899
:103DE00001A900F001000290029802A801F078F801
:103DF000079C002C18BF012401F0C6F84DF6836122
:103E0000A040C4F21B314FF0FF32A0FB010140F291
:103E1000F070C2F200404FF08043036002EB91412A
:103E2000C0E9011540F2E731C0E9031502F078F866
:103E300010B101200AB0B0BD40F2F070C2F20040F3
:103E400002F0A2F80AB0B0BD10B54EF6A05E4178FF
:103E5000CEF2000E90F800C04EF8081CDEF80010FC
:103E600021F00101CEF8001041684EF8041C017BDE
:103E7000C37A827A447B1B0643EA0171837B41EA61
:103E8000C241C27B41EA8441447A41EA4341007A1B
:103E900041EA024141EA042141EA400040EA0C00C3
:103EA000CEF8000010BD00004EF62450CEF2000007
:103EB000BFF35F8F016821F4803101600021016749
:103EC00070470000000000004EF6245140F0010051
:103ED000CEF200010867086840F480300860BFF344
:103EE0004F8FBFF36F8F704781B044F2F4400022D0
:103EF000C5F60200016841F00201016000680F216F
:103F000000F0020000906FF00100009B01B000F093
:103F100013B8000000000000002848BF704700F000
:103F20001F01012202FA01F14EF200124009CEF205
:103F3000000242F82010704770B54EF60C5C4FF04E
:103F4000FF36CEF2000C00F1604505F56445DCF863
:103F50000030C3F3022E8EF00703042B28BF042386
:103F6000BEF1030406FA03F321EA030100F00F0394
:103F700038BF0024043B0028634406FA04F048BF1D
:103F800003F10C05A14022EA00000843000128705B
:103F900070BD0000000000004EF60C514FF6FF030C
:103FA000CEF200010A681A4060F30A2242F08060F3
:103FB00040F0FD7008607047B0B544F60C05C5F6DA
:103FC000020529684907296805D401F00701081A84
:103FD00018BF0120B0BD21F0070108432860FFF79A
:103FE00073F9044655F8080C800407D4FFF76CF900
:103FF000001BB0F57A7FF5D90120B0BD0020B0BD1F
:1040000080B500F099FF44F220414EF67422C5F6C7
:104010000201C0F600020968C1F30211515C01F00F
:104020001F01C84080BD000080B544F2384EC5F67F
:10403000020E5EF8103C5EF8101C5EF80C2CC1F30A
:10404000053CDEF80410BCF1000F15D0C908D206FB
:1040500001EAE2716FF35F3100EE101A03F0030121
:104060000229B8EE400A0CD071B95EF8381C8906F6
:104070000DD49FED351A18E000218160C0E90011D0
:1040800080BD9FED301A10E09FED2D1A0DE05EF817
:10409000381C49F20002C0F2D032C1F3C10122FA49
:1040A00001F101EE101AB8EE411ADEF800109FED92
:1040B000273A6FF35F2102EE101ADEF80010C1F309
:1040C0004621B8EE422A00EE032A00EE10CAB7EEEF
:1040D000003AB8EE400A81EE000A32EE031A02EE10
:1040E000101AB8EE422A20EE010A32EE031A80EED0
:1040F000011ABCEEC11A80ED001ADEF80010C1F3FF
:10410000064101EE101AB8EE411A31EE031A80EEA4
:10411000011ABCEEC11A80ED011ADEF80010C1F3DD
:10412000066101EE101AB8EE411A31EE031A80EE64
:10413000010ABCEEC00A10EE101A816080BD00BFFB
:104140000024744A0024F44A0024744C000000390E
:1041500080B544F2404EC5F6020E5EF8183C5EF89B
:10416000181C5EF8142CC1F3055CDEF80410BCF1D9
:10417000000F15D0C908D20501EAE2716FF35F3173
:1041800000EE101A03F003010229B8EE400A0CD029
:1041900071B95EF8401C89060DD49FED351A18E000
:1041A00000218160C0E9001180BD9FED301A10E050
:1041B0009FED2D1A0DE05EF8401C49F20002C0F29E
:1041C000D032C1F3C10122FA01F101EE101AB8EEAA
:1041D000411ADEF800109FED273A6FF35F2102EEDF
:1041E000101ADEF80010C1F34621B8EE422A00EEA4
:1041F000032A00EE10CAB7EE003AB8EE400A81EE8C
:10420000000A32EE031A02EE101AB8EE422A20EE2D
:10421000010A32EE031A80EE011ABCEEC11A80EDDB
:10422000001ADEF80010C1F3064101EE101AB8EED4
:10423000411A31EE031A80EE011ABCEEC11A80ED6C
:10424000011ADEF80010C1F3066101EE101AB8EE93
:10425000411A31EE031A80EE010ABCEEC00A10EEDC
:10426000101A816080BD00BF0024744A0024F44A03
:104270000024744C000000392DE9F04381B004465D
:10428000C07844F22C490007C5F6020901D4002584
:104290002EE0A06E4FEA305003280DD80025DFE84D
:1042A00000F0020E1714D9F80000002540F4003089
:1042B000C9F8000055B913E001253DB910E004F13B
:1042C0000800022105F084FA05464DB1A84611E028
:1042D00004F12800022105F00BFB0546002DF5D165
:1042E000D9F82400A16E20F440100843C9F8240036
:1042F0004FF000086078C00730D0A06D042807D8C0
:10430000DFE800F00A131C030300FDB1A84625E016
:104310000125002DFAD119E0D9F8000040F4003051
:10432000C9F80000002DF1D110E004F108000021CF
:1043300005F04EFA0546002DE8D107E004F128000B
:10434000002105F0D5FA0546002DDFD1D9F824006B
:10435000A16D20F007000843C9F8240060788007A9
:1043600032D5E06D4FEAB010042807D8DFE800F03E
:104370000A131C030300FDB1A84625E00125002D0A
:10438000FAD119E0D9F8000040F40030C9F8000073
:10439000002DF1D110E004F10800002105F018FA19
:1043A0000546002DE8D107E004F12800002105F0C2
:1043B0009FFA0546002DDFD1D9F82400E16D20F4E5
:1043C000E0700843C9F824006078400734D5D4F879
:1043D000A8004FEA7050042807D8DFE800F00A135D
:1043E0001C030300FDB1A84626E00125002DFAD1EB
:1043F00019E0D9F8000040F40030C9F80000002DA1
:10440000F1D110E004F10800002105F0E1F90546C2
:10441000002DE8D107E004F12800002105F068FA3A
:104420000546002DDFD1D9F82C00D4F8A81020F4CF
:1044300060000843C9F82C006078000734D5D4F830
:10444000AC004FEA3060042807D8DFE800F00A1318
:104450001C030300FDB1A84626E00125002DFAD17A
:1044600019E0D9F8000040F40030C9F80000002D30
:10447000F1D110E004F10800002105F0A9F905468A
:10448000002DE8D107E004F12800002105F030FA02
:104490000546002DDFD1D9F82C00D4F8AC1020F05F
:1044A000E0600843C9F82C00E078800728D5E06C6C
:1044B0004FEA3010032806D8DFE800F002091202A4
:1044C000B5B1A8461CE00125002DFAD110E0D9F8BD
:1044D000000040F40030C9F80000002DF1D107E0E1
:1044E00004F10800022105F073F90546002DE8D11A
:1044F000D9F82000E16C20F030000843C9F8200012
:104500006078C00632D5206E4FEA3030042807D8D4
:10451000DFE800F00A131C030300FDB1A84625E004
:104520000125002DFAD119E0D9F8000040F400303F
:10453000C9F80000002DF1D110E004F108000021BD
:1045400005F046F90546002DE8D107E004F1280002
:10455000002105F0CDF90546002DDFD1D9F8240062
:10456000216E20F4E0400843C9F8240060788006FA
:1045700026D5606E4FEA3040052807D8DFE800F006
:10458000030A100303039DB1A84619E00125002D7D
:10459000FAD10DE004F10800012105F019F904E059
:1045A00004F12800012105F0A3F90546002DEBD107
:1045B000D9F82400616E20F4E0200843C9F82400F3
:1045C0006078400628D5D4F8B0004FEA307005284E
:1045D00007D8DFE800F0030A100303039DB1A846E3
:1045E0001AE00125002DFAD10DE004F108000121A7
:1045F00005F0EEF804E004F12800012105F078F957
:104600000546002DEBD1D9F82C00D4F8B01020F0DD
:10461000E0400843C9F82C006078000620D5206FE0
:10462000D8B1B0F1005F12D0B0F1805F25D1D9F8D8
:10463000000040F40030C9F8000085B9D9F8240022
:10464000216F20F040500843C9F8240008E004F12D
:104650000800012105F0BCF80546002DEED0A84663
:10466000E078C0072AD0A06C03280AD8DFE800F061
:10467000020D1602D5B1A84620E00125002DEED18D
:10468000DCE70125002DF6D110E0D9F8000040F458
:104690000030C9F80000002DEDD107E004F108005A
:1046A000022105F095F80546002DE4D1D9F8200047
:1046B000A16C20F003000843C9F82000A078400650
:1046C00042D5D9F8D40340F48070C9F8D403FEF77A
:1046D000FBFD0646D9F8D403C00505D4FEF7F4FD6A
:1046E000801B6528F6D303256DBBD9F84410D4F898
:1046F000B400414011F4407F11D0D9F84410D9F8EA
:10470000442042F48032C9F84420D9F8442021F4EE
:10471000407122F48032C9F84420C9F84410B0F541
:10472000807F0FD1FEF7D0FD064641F2893700BFEA
:10473000D9F84400800705D4FEF7C6FD801BB842B7
:10474000F6D3032585B1A8462078C00742D0E06F94
:104750004FEAF000052823D8DFE800F003262C03F9
:1047600003037DB3A84635E04FF6CF73D4F8B40009
:1047700059F81C2CC0F2FF0300F4407122F47C5263
:1047800003EA1013B1F5407F08BF1A436FF31F30DF
:1047900049F81C2CD9F844100843C9F84400D3E761
:1047A0000125002DDED10DE004F10800012105F006
:1047B0000FF804E004F12800012105F099F80546FE
:1047C000002DCFD1D9F82800E16F20F03800084340
:1047D000C9F828002078800724D5A06F052807D8BD
:1047E000DFE800F0030A100303039DB1A84619E0B7
:1047F0000125002DFAD10DE004F10800012104F09B
:10480000E7FF04E004F12800012105F071F80546F6
:10481000002DEBD1D9F82800A16F20F00700084344
:10482000C9F828002078400726D5D4F89400052838
:1048300007D8DFE800F0030A100303039DB1A84680
:104840001AE00125002DFAD10DE004F10800012144
:1048500004F0BEFF04E004F12800012105F048F84F
:104860000546002DEBD1D9F82C00D4F8941020F097
:1048700007000843C9F82C002078800628D5D4F812
:1048800090004FEA3070052807D8DFE800F0030AEF
:10489000100303039DB1A8461AE00125002DFAD1AB
:1048A0000DE004F10800002104F092FF04E004F19F
:1048B0002800022105F01CF80546002DEBD1D9F89F
:1048C0002800D4F8901020F0E0400843C9F82800F0
:1048D0002078400628D5D4F89C004FEAB02005285F
:1048E00007D8DFE800F0030A100303039DB1A846D0
:1048F0001AE00125002DFAD10DE004F10800002195
:1049000004F066FF04E004F12800022104F0F0FF47
:104910000546002DEBD1D9F82C00D4F89C1020F4DA
:10492000E0500843C9F82C002078000628D5D4F8B8
:10493000A0004FEA7030052807D8DFE800F0030A2E
:10494000100303039DB1A8461AE00125002DFAD1FA
:104950000DE004F10800002104F03AFF04E004F146
:104960002800022104F0C4FF0546002DEBD1D9F840
:104970002C00D4F8A01020F460400843C9F82C00A3
:104980002078000716D5D4F88400B0F5805F08D1F0
:1049900004F12800022104F0ABFF002818BF4FF0FB
:1049A0000108D9F82800D4F8841020F440500843B6
:1049B000C9F828002078C00616D5D4F89800B0F5BC
:1049C000807F08D104F12800022104F091FF002823
:1049D00018BF4FF00108D9F82C00D4F8981020F433
:1049E00040700843C9F82C00A078000722D5D4F8FD
:1049F000A400B0F5003F1AD0B0F5803F11D0C8BB7D
:104A000004F10800002104F0E3FE05468DB9D9F851
:104A10002C00D4F8A41020F440300843C9F82C002E
:104A200008E004F12800022104F062FF0546002D91
:104A3000EDD0A846A078400729D5D4F88800B0F575
:104A4000401F21D0B0F5001F18D0B0F5801F40F0F6
:104A5000BE80D9F8000040F40030C9F80000ADB9BC
:104A6000D9F82800D4F8881020F440100843C9F879
:104A700028000CE00125002DDBD1C8E704F1280057
:104A8000012104F035FF0546002DE9D0A846A078A5
:104A9000C00720D0206DB0F5803F10D0B8B9D9F84C
:104AA000000040F40030C9F800009DB9D9F820009A
:104AB000216D20F480300843C9F820000BE004F198
:104AC0000800022104F084FE05461DB9EEE7012529
:104AD000002DEBD0A846E078800608D504F1280028
:104AE000022104F005FF002818BF4FF00108D4E9A7
:104AF00000108A037AD5D4F880206FF0010303EB0D
:104B00003223022B0AD34FEA32233BB1012B63D16C
:104B1000D9F8003043F40033C9F80030002D5ED0DE
:104B2000CA0266D4CA006ED48A0278D44A0000F160
:104B30008180CA0F40F08E80090200F19680C00784
:104B400007D004F10800002104F042FE002818BF3D
:104B500005462079800707D504F10800012104F0FB
:104B600037FE002818BF05462079400707D504F115
:104B70000800022104F02CFE002818BF0546207909
:104B8000000707D504F12800002104F0B1FE002839
:104B900018BF05462079C00607D504F12800012179
:104BA00004F0A6FE002818BF05462079800607D528
:104BB00004F12800022104F09BFE002818BF012503
:104BC000002D18BF0125284601B0BDE8F08301255E
:104BD000002D7FF45BAF43E70125002DA0D1D9F86C
:104BE000283023F440731A43C9F828204546CA02E6
:104BF00098D5D9F82420636F22F000421A43C9F8EF
:104C00002420CA0090D559F81C2CD4F8B83022F4CE
:104C100080421A4349F81C2C8A027FF587AFD9F8E5
:104C20002420E36E22F080721A43C9F824204A003F
:104C30007FF57FAF59F81C2C22F4004249F81C2C58
:104C4000D4F8BC2059F81C3C1A4349F81C2CCA0F54
:104C50003FF472AFD9F82020636D22F040521A431E
:104C6000C9F8202009027FF56AAFD9F82810D4F8D6
:104C70008C2021F440011143C9F82810C0077FF4AB
:104C800060AF66E7000000002DE9F04381B0002826
:104C900000F0F68042F200080446C5F2002889467A
:104CA000D8F8000000F00F0088420ED2D8F80000BB
:104CB00020F00F0040EA0900C8F80000D8F8000012
:104CC00000F00F00484540F0DB80206844F21847B0
:104CD0004107C5F602070AD521693A6802F0700259
:104CE000914204D93A6822F07002114339600107F9
:104CF0000AD561697A6802F07002914204D97A6833
:104D000022F0700211437960C1060AD5A1697A6860
:104D100002F4E062914204D97A6822F4E06211431D
:104D2000796081060AD5E169BA6802F070029142A1
:104D300004D9BA6822F070021143B96081070AD51C
:104D4000E1683A6802F00F02914204D93A6822F011
:104D50000F0211433960C00740F08080206881074E
:104D60000AD5E1683A6802F00F02914204D23A682B
:104D700022F00F0211433960D8F8001001F00F0142
:104D800049450DD9D8F8001021F00F0141EA090179
:104D9000C8F80010D8F8001001F00F0149456FD194
:104DA00041070AD521693A6802F07002914204D2A3
:104DB0003A6822F070021143396001070AD561692F
:104DC0007A6802F07002914204D27A6822F070028E
:104DD00011437960C1060AD5A1697A6802F4E062DC
:104DE000914204D27A6822F4E0621143796080062D
:104DF0000AD5E069B96801F07001884204D2B96847
:104E000021F070010843B86000F01EF939684EF6D1
:104E100074233A68C0F60003C1F3032102F00F02C5
:104E2000595C9A5C01F01F0120FA01F102F01F00A9
:104E300040F2600221FA00F0C2F20042106040F23B
:104E4000880040F25C02C2F20040C2F200420068F8
:104E5000116001B0BDE8F043FEF7A6BF386820F44A
:104E60007061D4E90102012841EA020139600BD0E6
:104E700003282BD002282ED157F8181C890307D4F9
:104E8000012001B0BDE8F08357F8181CC905F7D51B
:104E900057F8081C21F00701084347F8080CFEF7F3
:104EA00013FA064641F2883557F8080C616800F09D
:104EB0003800B0EBC10F3FF451AFFEF705FA801B8D
:104EC000A842F1D9032001B0BDE8F08357F8181CBF
:104ED0008901D5D5DCE757F8181C4907D0D5D7E7A5
:104EE0003F22026044F21842C5F6020252F8083C22
:104EF00003F007034360136803F47063836013686F
:104F000003F00F03C360136803F070030361536879
:104F100003F070034361536803F4E06383619268B4
:104F200002F07002C26142F20000C5F20020006887
:104F300000F00F000860704780B500F085F844F27B
:104F400018414EF67423C5F60201C0F600030A6844
:104F5000096801F00F01C2F30322595C9A5C02F068
:104F60001F0220FA02F201F01F0040F2600122FA53
:104F700000F0C2F20041086040F25C01C2F2004160
:104F80000A6080BD0000000080B500F05DF844F2CA
:104F9000184C4EF67421C5F6020CC0F60001DCF880
:104FA0000020DCF8003003F00F03C2F30322CB5CD7
:104FB0008A5C02F01F02D04003F01F0240F260033F
:104FC00020FA02F2C2F200431A6040F25C03C2F21D
:104FD00000431860DCF80400C0F30210085C00F025
:104FE0001F0022FA00F080BD80B500F02DF844F2D9
:104FF000184C4EF67421C5F6020CC0F60001DCF820
:105000000020DCF8003003F00F03C2F30322CB5C76
:105010008A5C02F01F02D04003F01F0240F26003DE
:1050200020FA02F2C2F200431A6040F25C03C2F2BC
:1050300000431860DCF80400C0F30220085C00F0B4
:105040001F0022FA00F080BD44F20041C5F60201C3
:105050000869C0F3C20003280FD002282CD080BBFF
:105060000868800649F20000C0F2D03058BF70478F
:105070000968C1F3C101C84070478A6A886AC0F3F1
:10508000051CC86ABCF1000F4B6B1FD000F001007B
:1050900002F003024042022A00EAD3006FF35F30BD
:1050A00000EE100AB8EE400A12D0A2B908688006D5
:1050B00014D49FED261A1EE041F20020C0F27A00BF
:1050C000704740F60010C0F23D0070470020704766
:1050D0009FED1D1A0FE09FED1B1A0CE0086849F2C6
:1050E0000002C0F2D032C0F3C10022FA00F001EE9B
:1050F000100AB8EE411A086B9FED153A6FF35F2066
:1051000002EE100A086BC0F34620B8EE422A0130C6
:1051100000EE032A00EE10CAB7EE003AB8EE400ADD
:1051200081EE000A32EE031A20EE010A01EE100AA7
:10513000B8EE411A80EE010ABCEEC00A10EE100A69
:10514000704700BF0024744A0024F44A0024744CC1
:1051500000000039000000002DE9F04381B0F8B1F3
:105160008046007844F20049C007C5F602095AD0CB
:10517000D9F8100000F03801D9F82800102905D01E
:1051800018290FD100F0030002280BD1D9F8000034
:10519000800344D5D8F80400002840D101272FE02F
:1051A000012718E3D8F804402CB1B4F5A02F0DD096
:1051B000B4F5803F10D0D9F8000020F48030C9F851
:1051C0000000D9F8000020F4802009E0D9F80000A0
:1051D00040F48020C9F80000D9F8000040F4803085
:1051E000C9F80000FEF770F80546A4B1D9F8000030
:1051F000800314D4FEF768F8401B6428F6D903270F
:105200000020002800F0E7820DE000BFFEF75CF808
:10521000401B6428F3D8D9F800008003F6D401209D
:10522000002800F0D88298F80000800740F18480C0
:10523000D9F8100010F03801D9F828001CD018292E
:1052400008BF5FEA807017D0D8F80C00D9F80010BA
:10525000002847D021F019010843C9F80000FEF7E3
:1052600033F80546D9F8000040072AD4FEF72CF899
:10527000401B0228F6D91EE0D9F80000400704D5EB
:10528000D8F80C00002800F09681D9F80000D8F872
:105290000C1020F019000843C9F80000FEF714F8BC
:1052A000054600BFD9F8000040070AD4FEF70CF805
:1052B000401B0228F6D903270024002C00F08B8223
:1052C0003AE0FDF7F9FF41F20301884223D8D8F80C
:1052D0001000D9F80410402821F47C3124D141F485
:1052E000003023E021F00100C9F80000FDF7ECFFD9
:1052F00005460126D9F8000010F0040086EA900463
:1053000017D0FDF7E1FF401B0228F3D90327002C3B
:1053100000F0618210E0D9F80400D8F8101020F0F5
:10532000FE4040EA016001E041EA00300124C9F892
:105330000400002C00F04F8298F80000C00674D5DD
:10534000D9F8100000F03801D9F82800082905D054
:1053500018291CD100F00300012818D1D9F8000049
:10536000C00503D5D8F81C00802859D1FDF7A4FF4B
:1053700041F20301884222D8D8F82000D9F804105D
:10538000202821F0F84142D141F0804041E0D8F896
:105390001C000028D9F8000020D040F08000C9F897
:1053A0000000FDF791FF0546D9F80000C005DDD4E7
:1053B000FDF78AFF401B0228F6D9032731E0D9F810
:1053C0000C00D8F8201020F07C50012440EA016045
:1053D000C9F80C00002C00F0FE8126E020F08000CF
:1053E000C9F80000FDF770FF05460126D9F8000056
:1053F00010F4807086EA10240ED0FDF765FF401B84
:105400000328F3D30327002C00F0E5810DE041EAE7
:105410008060C9F804000124002C00F0DC8104E065
:1054200001270024002C00F0D68198F80000000726
:105430001CD498F80000800631D498F8000040078A
:1054400045D4D8F82440002C00F09180D9F8100001
:1054500000F03800182840F08C80012CD9F8281072
:10546000D9F8300040F0A9800127B4E1D8F8140041
:105470000028D9F874003ED040F00100C9F874004B
:10548000FDF722FF054600BFD9F874008007D0D48D
:10549000FDF71AFF401B0228F6D903279BE1D8F835
:1054A00018000028D9F800004DD040F48050C9F809
:1054B0000000FDF709FF0546D9F800008004BCD4C0
:1054C000FDF702FF401B0228F6D9032783E1D9F834
:1054D000000440F48070C9F80004FDF7F5FE0546AD
:1054E000D9F80004C0051AD4FDF7EEFE401B64286D
:1054F000F6D903276FE120F00100C9F87400FDF729
:10550000E3FE0546032700BFD9F8740080077FF546
:1055100090AFFDF7D9FE401B0228F5D95BE1D8F822
:1055200008402CB1052C00F08280012C00F0858011
:10553000D9F8700020F00100C9F87000D9F87000A7
:1055400020F004007DE020F48050C9F80000FDF751
:10555000BBFE0546032700BFD9F8000080047FF595
:105560006CAFFDF7B1FE401B0228F5D933E10027EF
:1055700031E1D9F8000020F08070C9F80000FDF793
:10558000A3FE022C05464FF0030709D1D9F800000D
:10559000800178D5FDF798FE401B0228F6D91AE164
:1055A000D9F80000800140F1E780FDF78DFE401B37
:1055B0000228F5D90FE101277EE601F00302D8F8B1
:1055C00028309A4240F0DA80C1F30511D8F82C2037
:1055D000914240F0D7800146D8F830206FF35F2128
:1055E000013A914240F0D080C0F34622D8F83410FE
:1055F00001398A4240F0CA80C0F30642D8F8381018
:1056000001398A4240F0C480C0F30660D8F83C10EB
:105610000139884240F0BE80D9F83400D8F84810EB
:10562000C0F3CC00814240F0B7800027D3E0D9F826
:10563000700040F00400C9F87000D9F8700040F024
:105640000100C9F87000FDF73FFE002C054641F24D
:1056500088344FF0030711D0D9F8700080073FF568
:10566000F0AEFDF731FE401BA042F5D9B3E000BF1C
:10567000FDF72AFE401BA04200F2AD80D9F8700071
:105680008007F5D4DDE608F12807D9F8280040F2B4
:10569000F33188438ECF0843591E40EA02104FF47D
:1056A0007E426FF35F21C9F8280002EB47204FF4D8
:1056B000FE0280B2D8F83C300844D8F8381002EB2B
:1056C00001414FF0FE4201F4FE0102EB0362084487
:1056D00002F0FE410844C9F83000D9F82C004FF61A
:1056E000F87120F00100C9F82C00D9F83400D8F87E
:1056F0004820884340EAC200C9F83400D9F82C0099
:10570000D8F8401020F00C000843C9F82C00D9F854
:105710002C00D8F8441020F002000843C9F82C00EF
:10572000D9F82C0040F48030C9F82C00D9F82C00AE
:1057300040F40030C9F82C00D9F82C0040F4802047
:10574000C9F82C00D9F82C0040F00100C9F82C0051
:10575000D9F8000040F08070C9F80000FDF7B4FDF2
:1057600004460327D9F80000800109D4FDF7ACFDF9
:10577000001B0228F6D92EE000272CE001272AE0A2
:10578000002728E0012726E0012724E0012722E066
:10579000012720E001271EE0D9F82C0020F00100AD
:1057A000C9F82C00FDF790FD0546FDF78DFDA842D8
:1057B000FBD0D9F834004FF6F871D8F84820884368
:1057C000002740EAC200C9F83400D9F82C0040F0A4
:1057D0000100C9F82C00F8B201B0BDE8F083000068
:1057E0002DE9F041002800F0C98043F6000304468B
:1057F0000068C4F2000343F2000E43F6004C9842E6
:10580000C4F2010EC4F2000C4FF00001A16204D0FA
:10581000604518BF704540F0AD80E16B0125E2683E
:10582000984202F1080205EB51114FEAD20202FB45
:1058300001F118BF704540F08B80102900F29E8066
:1058400094F8810028B9002084F88000204600F0F8
:105850009BF8022084F881002068D4F818E00168E1
:10586000BEF1806F21F00101016082680FD1636891
:105870002BB1B3F5800F0AD1A16B21B13BB9A16B5C
:10588000B1F1805F03D1016841F480510160636828
:1058900002F4F81213F4800C08D0E168072905D34C
:1058A0000168256D21F48071294302E0016821F42B
:1058B00080710160E169A56A41EA0201E26B41EA97
:1058C000050141EA0201D4E90285D4E9046741EA0D
:1058D00005018160656AD4E90D1241EA0501E56CB4
:1058E00041EA0201226A41EA060141EA070141EA6E
:1058F0000201A26C41EA0501A56D41EA080141EAF5
:10590000020141EA050141EA0E0141EA0301C160D9
:105910004BB98168012262F3CC2181608168022247
:1059200062F34A218160016DBCF1000F21F0010199
:10593000016505D0C168626D21F000411143C1606D
:105940000020C4F88400012184F88110BDE8F081B2
:10595000604518BF082911D8984218BF70453FF418
:105960006CAF60457FF46CAF102984BF0120BDE8A7
:10597000F08165E7E1680F297FF64FAF0120BDE8B0
:10598000F0810000000000002DE9F043B7B00446AC
:1059900002A8C0210025CDE93555CDE93355329512
:1059A000FAF766FD43F200012068C4F20101884263
:1059B00002D037B0BDE8F0834FF48050029002A8C7
:1059C00003951A95FEF758FC08B1FBF781FD44F2E8
:1059D000E0400024C5F60200C5F6020432AD4FF0E7
:1059E000020801694FF0000941F480510161016929
:1059F000032601F4805101910199016841F00801E9
:105A000001600168052701F0080101910199016811
:105A100041F0010101600068294600F00100019099
:105A200001988020329004F54060CDF8CC80CDF80C
:105A3000D09035963697FDF767FB32A96020CDE907
:105A4000356781E8010320462946FDF75DFB37B045
:105A5000BDE8F083000000002DE9F04F81B09B46C7
:105A600015460F460446D0F80090C66BFDF72CFC97
:105A700094F8811001290FD180464FF0010027B121
:105A8000002D18BFBBF1000F02D101B0BDE8F08FAF
:105A900094F88000012803D1022001B0BDE8F08F06
:105AA000012084F88000052084F881000021C4F8DA
:105AB0008410656643F60002A4F86AB0C4F20002DE
:105AC000A4F868B0E7651027A4F862B02068A4F8CD
:105AD00060B0216790426167C16821F4C021C16054
